:1000000058C0EFC171C070C06FC06EC06DC06CC011
:100010006BC06AC069C068C067C066C065C00403C1
:1000200009042203720075006E00670061002E0053
:10003000740075006D0062006C0072002E00630099
:100040006F006D001603540065006D0070004C00D9
:100050006F00670067006500720012011001000068
:100060000008424231E100010102000109022200C0
:1000700001010080190904000001030000000921AA
:10008000010100012223000705810308000A050180
:100090000906A101050719E029E7150025017501E9
:1000A000950881029501750825651900296581006B
:1000B000C00011241FBECFE5D1E0DEBFCDBF10E0F0
:1000C000A0E6B0E0E0E4FBE002C005900D92A436AB
:1000D000B107D9F710E0A4E6B0E001C01D92A43B3F
:1000E000B107E1F7A3D32AC58BCF85B7836085BF5E
:1000F0008BB780648BBF83EC80938A0008951F9335
:10010000DC01162F8091620084FF0AC080918A0072
:1001100098E8892780938A00912FEBE8F0E007C0E8
:100120008AE580936200F8CF8D9181939150992355
:10013000D9F78BE890E0612F3DD11C5F10936200EE
:100140001F9108950F931F93CF93DF9390919A007F
:1001500019160CF0B1C020919700809196008D3255
:1001600009F0A0C08AE5809361009B3009F09AC035
:10017000CCE0D0E0C21BD109C256DF4F8881807627
:1001800009F082C0109288008981882359F4109266
:10019000890088E890E0909399008093980090E817
:1001A00022E079C0853021F48A8180939B006AC067
:1001B000863009F04CC08B81813049F48AE590E0AB
:1001C000909399008093980090EC22E164C0823073
:1001D00019F48CE690E012C0833019F58A818823E7
:1001E00049F48EE190E0909399008093980090EC10
:1001F00024E051C0813049F482E290E0909399006C
:100200008093980090EC22E246C0823009F041C011
:1002100084E490E0909399008093980090EC26E11C
:100220003AC0813249F48EE790E090939900809330
:10023000980090EC29E02FC0823259F58EE890E0CA
:10024000909399008093980090EC23E224C088302A
:1002500019F48DE990E00AC0893021F48A818093F5
:100260009D0010C08A3049F488E890E0909399008E
:100270008093980090E821E00EC08B3019F483EC55
:1002800080938A0090E806C0CE01A0D2282F90E883
:1002900002C090EC20E08F81882339F48E81821790
:1002A00028F003C090E880E001C0822F90936500A1
:1002B0008093600010929A008091610084FF49C091
:1002C000809160008F3F09F444C0182F893008F0F6
:1002D00018E0811B809360008091650080FD02C062
:1002E0000BE401C003EC8F5F8093650020919800C0
:1002F0003091990086FD05C0D901912FE0E8F0E02A
:1003000011C0A0E8B0E080E090E006C0F901E80F7D
:10031000F91FE491ED9301961817C1F705C08D916F
:10032000819391509923D9F7F901E10FF11DF093D1
:100330009900E093980080E890E0612F3BD018305E
:1003400019F08FEF8093600000937F001C5F109383
:1003500061009AE086B3857031F49150D9F710921C
:100360009B001092950010E0992309F411E0809110
:100370006400811729F0112309F470D310936400ED
:10038000DF91CF911F910F910895A82FB92F80E091
:1003900090E041E050EA60956F5F58F42D9138EF9E
:1003A00082279795879510F0842795273F5FC8F39C
:1003B000F3CF0895EADF8D939D930895A6E08827F3
:1003C0009927AA9569F00197E1F3B099FCCFB09B0A
:1003D000FECF81E09927A6B3019611F0A570D9F759
:1003E0000895CF93CFB7CF93B09BFECFB09B0BC0F8
:1003F000B09B09C0B09B07C0B09B05C0B09B03C0B9
:10040000B09B01C0D5C00F92DF93C0919700DD274C
:10041000C256DF4F012EB09B03C0DF910F90E6CF95
:100420002F930F931F934F932FEF4F6F06B300FB44
:1004300020F95F933F9350E03BE065C016B301267F
:10044000502950FDC89556B3012700FB25F92F739D
:1004500006B3B1F05027102710FB26F906B2223060
:10046000F0F000C016B3012700FB27F90126502940
:1004700006B22430E8F54F77206816B30000F6CFB7
:1004800050274F7D206206B2102F000000C006B337
:1004900000265029102710FB26F906B2E2CF4F7B29
:1004A00006B3206400C0DACF01265029157006B2C9
:1004B00069F14E7F2160012F16B328C00026502914
:1004C0004D7F06B22260102F29C0012650294B7F94
:1004D00006B22460012F2DC016B301265029477F94
:1004E0002860000006B22EC04F7E06B3206130C0E7
:1004F000422706B3499300265029102706B24FEF32
:1005000010FB20F9297F16B379F2157059F10126F5
:10051000502906B2012700FB21F9237F06B371F2AF
:10052000002650293150D0F006B2102710FB22F9D6
:10053000277E16B351F201265029012700FB06B28F
:1005400023F92F7C49F2000006B3102710FB24F991
:100550000026502906B22F7939F270CF10E41ABF65
:10056000002719C03B503195C31BD04010E41ABF7F
:100570000881033C09F10B34F9F0209195001981B1
:10058000110F1213EDCF4A81441F093651F10D327C
:1005900011F0013E29F700939C003F915F914F912C
:1005A0001F910F912F91DF910F90CAB7C6FD1CCFFD
:1005B000CF91CFBFCF91189500919C00002369F394
:1005C00010919A00112379F534307AF130939A0022
:1005D00000939600109197003BE0311B30939700F9
:1005E00024C000919A000130F4F40AE54F7049F4F8
:1005F0003091610034FD1AC000936100CFE7D0E074
:1006000019C03091620034FD11C000936200CAE845
:10061000D0E010C0052710E000C021C0052710E081
:10062000C89508BB14C03AE501C032ED032EC0E006
:10063000D0E032E017B31560C09A08B317BB55E09D
:1006400020E84FEF20FF052708BB279517951C3F93
:1006500028F700004552B0F720FF0527279508BB73
:1006600017951C3FB8F629913A9561F70A7F1091CA
:100670009B00110F08BBC250D04011F010939500A1
:1006800010E41ABF016017B31A7F402F4A7F54E06D
:100690005A95F1F708BB17BB48BB7FCFC498BC9AEB
:1006A0008CEB97E00197F1F7F894BC9888E091E023
:1006B0000197F1F786B37894E4EBF6E03197F1F720
:1006C000B49902C081E0089580710895F894BC9AAD
:1006D00095E09A95F1F78111BC9896E29A95F1F719
:1006E000B49B80E097EF9A95F1F7BC98789497E3E4
:1006F0009A95F1F708950F931F93182F08E0812F13
:100700008170E4DF1695811110680150C1F7812FC7
:1007100090E01F910F9108958FEFEDDF08951F93E3
:10072000182FBCDF8CECE7DF812FE5DF1F910895E8
:10073000B49B04C084E4F3DFC49ABC9A0895DF92AA
:10074000EF92FF920F931F93CF93DF93E82EEB016D
:10075000A5DF882381F580EFCEDF80E4FF24182F0A
:1007600098EFD92ED80E81E0B1DF082F81E0AEDFFF
:10077000882329F0002371F08EEFF82E1EC000238D
:1007800049F41E1528F0888180FF04C0E11611F09D
:10079000F12E01E0802F9ADF8881869588830023DF
:1007A00011F08068888311501D15E9F6112329F096
:1007B0002196812FD4CFFF24FA948F2DDF91CF91F2
:1007C0001F910F91FF90EF90DF900895FC0189E653
:1007D00090E0909399008093980080818076803299
:1007E00019F58181813079F4E0917D00F0917E00EE
:1007F000309711F480E001C08081109269008093ED
:100800006A0082E00895823041F48BE690E0909394
:1008100099008093980081E008958A3029F48381BB
:1008200080936B0080E0089580E008953F924F929E
:100830005F926F927F928F929F92AF92BF92CF9270
:10084000DF92EF92FF920F931F93DF93CF93CDB779
:10085000DEB728970FB6F894DEBF0FBECDBF80E09D
:1008600090E056D18F3F09F081BF62DFB89A20E057
:1008700043EB51EFCA010197F1F72F5F2431D1F714
:10088000B898C19A8EE028E130E00FB6F894A895A8
:1008900021BD0FBE81BD8BE080BF27DC789414E0C2
:1008A000312E442443944E010894811C911CB8E2DB
:1008B0006B2EA7E35A2EF7E2BF2EEDE27E2E78E7ED
:1008C000C72E70E0D72E62E2A62EA8953BDC809161
:1008D000620084FF20C0E0917D00F0917E0030979F
:1008E000D1F080811092690080936A0089E690E0DF
:1008F00062E005DCE0917D00F0917E003196F0939E
:100900007E00E0937D00319781818F3F21F410922A
:100910007E0010927D0008B602FED7CF38BE96B397
:10092000927080916800891759F09093680099231C
:1009300039F480916C00882309F491E090936C0065
:10094000809167008F5F809367008F3308F4BDCF7D
:100950001092670080916C00882309F4B6CF8091D3
:100960006600882309F476C0109266008FEFB40108
:10097000E6DE8E5F823018F420E030E012C08EEBAD
:10098000BADECADE8C01C8DEF82EEE249701202BD9
:10099000312B8981803129F453E0220F331F5A957E
:1009A000E1F78FEF80937C0010927B0060927A00D9
:1009B000C90144E0969587954A95E1F7A82F37FD40
:1009C000A19523FF05C01092790037FF05C00BC029
:1009D0001092790037FF07C0D0927E00C0927D0050
:1009E000A092780006C0D0927E00C0927D00B092A6
:1009F000780080917D0090917E00FC0112923197E9
:100A00005082FC0134978A2F6AE076D0492F8A2FD2
:100A100073D0A82F1182442329F4CF015E2F892F90
:100A2000B08205C0CF015E2F892F435E408332978D
:100A3000AA2349F750937D0080937E0037FF45CF6E
:100A4000E52FF82F12923197F0937E00E0937D000E
:100A500070823BCF409266006BDE37CFDF92EF9221
:100A6000FF920F931F93CF93DF9300E080E8D82E7F
:100A7000EE24FF241D2D100F11BFA0DCEC0189E036
:100A8000C433D8070CF0102FD6940894E11CF11C45
:100A900088E0E816F10411F0012FECCF115011BFDE
:100AA0001F5FE12EFF240894E11CF11C13C086DCBB
:100AB0009C012453394037FF03C0309521953F4FA7
:100AC0002C173D0714F09E0101C011B781B78F5F4D
:100AD00081BFE90181B790E0E816F90644F711BF3C
:100AE00061B780E090E01CD0DF91CF911F910F9112
:100AF000FF90EF90DF900895991B79E004C0991F53
:100B0000961708F0961B881F7A95C9F78095089567
:100B1000E199FECF1FBA8EBBE09A99278DB3089555
:100B2000262FE199FECF1CBA1FBA8EBB2DBB0FB684
:100B3000F894E29AE19A0FBE01960895F894FFCFD7
:040B4000FF5A5A00FE
:00000001FF
