:10000000D4C046C2EDC0ECC0EBC0EAC0E9C0E8C055
:10001000E7C010CAE5C00EC8E3C0E2C03ACAE0C0FB
:10002000DFC0DEC0DDC07FC885C89AC831C930C90D
:10003000ABC82EC92DC92CC92BC92AC929C928C9A1
:1000400027C926C9F4C8F7C8FAC8FDC8FEC8FFC842
:1000500003C912C908C910C906C905C904C910C90C
:1000600017C916C9BDC8C0C8C3C8C6C8C7C8A4C8B0
:10007000A8C8C6C8C9C8CCC8CFC8D0C8D3C80BC9BF
:1000800007C906C98DC890C893C8B6C8B7C894C870
:1000900098C89EC8B9C8A0C8BFC8C0C8C3C8120302
:1000A00061007600720064006F00700065007200ED
:1000B00014034100560052002D0044006F007000F0
:1000C0006500720012036F00620064006500760034
:1000D0002E0061007400040309040853544B3530AA
:1000E000305F32000600FF0901A101150026FF0064
:1000F00075088501950E0900B202018502951E0959
:1001000000B202018503953E0900B2020185049503
:100110007E0900B202018505953E0900B20201C0C8
:100120000902430002010080640904000001020288
:100130000100052400100104240202052406000128
:100140000524010301070583030800640904010075
:10015000020A0000000705010208000007058102ED
:100160000800001201100102000008C016E105009D
:100170000101020301090222000101008064090457
:1001800000000103000000092101010001223C00E0
:100190000705810308000A1201010100000008C0E0
:1001A00016DF050001010200010011241FBECFE58A
:1001B000D4E0DEBFCDBF10E0A0E6B0E0E4EDF8E1B2
:1001C00002C005900D92AC38B107D9F713E0ACE846
:1001D000B0E001C01D92AC3EB107E1F706DB79CB80
:1001E0000FCF1F93CF93DF93DC01162FEA01888195
:1001F00084FF05C0898198E88927898302C08AE540
:100200008883AE014E5F5F4FFA01212F8D9181935C
:1002100021501216DCF3612FCA0136D11C5F1883FE
:10022000DF91CF911F91089545EE52E0DADF0895F6
:1002300040E153E0D6DF0895CF93DF936091F6025B
:10024000635067FDA6C08091F302C6E0D3E0C81BEF
:10025000D1098091F202803118F4CE01B7DA97C04B
:100260008D3209F084C0683009F091C033EC3093CE
:10027000DA028AE58093600010928C008881807693
:1002800019F0CE016FD95FC043EE52E02A8180930E
:10029000E3029981992321F48093E40282E04FC024
:1002A000953019F42093F7024AC09630A1F5382F03
:1002B0008B818130F1F08230E1F08330C1F4222370
:1002C00021F434E086ED90E01DC0213021F432E1CC
:1002D00084EC90E017C0223021F434E180EB90E010
:1002E00011C0233099F432E18EE990E00BC08132E5
:1002F00021F4CE0113D9382F09C0823239F43CE3FE
:1003000084EE90E09093F5028093F40280E4809371
:100310008C00832F18C0983019F449EF52E007C0C1
:10032000993019F42093F9020AC09A3011F481E04F
:1003300006C09B3021F43093E602309311035093B2
:10034000F5024093F402982F8F3F39F4888187FD9E
:100350009E8180E880938C0007C08F81882321F4E0
:100360008E81891708F4982F9093610010C08091B6
:100370008C0087FF0CC0CE01C8D98F3F21F48EE1DD
:100380008093600004C0882311F0109261001092E5
:10039000F6028091600084FF44C0809161008F3F2D
:1003A00009F43FC0682F893008F068E0861B80930D
:1003B00061008091DA0298E889278093DA02ABED38
:1003C000B2E06623E9F080918C0087FF04C0CD0184
:1003D000FCD8682F15C0962FE091F402F091F50239
:1003E00086FF06C084918D9331969150D9F704C051
:1003F00081918D939150E1F7F093F502E093F4022F
:100400007727C62F693038F48BED92E03DD0CC5F72
:10041000CC3028F401C0CEE18FEF80936100C0930F
:10042000600094E180B38C7031F49150D9F79093CF
:10043000F7029093F102DF91CF91089585B7836021
:1004400085BF8BB780648BBF83EC8093E60280937B
:1004500011038AE58093E502809310030895A82F85
:10046000B92F80E090E041E050EA60956F5F58F46A
:100470002D9138EF82279795879510F0842795273F
:100480003F5FC8F3F3CF0895EADF8D939D930895FE
:10049000CF93CFB7CF93C395839BE9F7839B09C0D5
:1004A000839B07C0839B05C0839B03C0839B01C0C4
:1004B000A6C0DF93C091F302DD27C650DD4F839BBA
:1004C00002C0DF91EBCF2F930F931F9300B32FEF59
:1004D00003FB20F94F933F9310B34FEF012703FB2A
:1004E00021F93BE031C04E7F012F10B3216028C0BD
:1004F000102F4D7F2260000000B329C04B7F246085
:10050000012F000010B32BC010B3477F28602AC012
:100510004F7E00B320612CC04F7D10B320622FC0EE
:100520004F7B00B3206432C0422700B349934FEFA2
:100530000000102713FB20F910B31C70C9F1297FAC
:1005400091F2012703FB21F900B3237F89F2315097
:1005500058F1102713FB22F910B3277E79F20127F7
:1005600003FB23F92F7C81F200B3102713FB24F93E
:100570002F7971F200C010B3012703FB25F92F7307
:1005800059F200C000B3102713FB26F9223040F2C5
:1005900000C010B3012703FB27F9243028F64F775A
:1005A000206810B30000F9CF10E41ABF00271CC068
:1005B0003B503195C31BD04010E41ABF0881033C67
:1005C00011F10B3401F12091F1021981110F121375
:1005D000EDCF4A81441F093659F10D3211F0013E29
:1005E00029F74F7009F0042F0093F8023F914F91C3
:1005F0001F910F912F91DF91CAB7C6FD4CCFCF91BC
:10060000CFBFCF9118952091F802222379F3109152
:10061000F6021123C1F53430C2F13093F602209373
:10062000F2021091F3023BE0311B3093F3022DC034
:100630000091F60201303CF50AE54F7049F4309123
:10064000600034FD24C000936000CAEDD2E023C0F6
:10065000433049F03091E50234FD19C00093E502C2
:10066000C6EED2E018C03091100334FD10C00093E4
:100670001003C1E1D3E00FC02795A8F45150A9F4AD
:10068000220F0000F9CF4AE503C042ED01C0432F1D
:10069000C4E1D0E032E011B31C60939A11BB02B305
:1006A00020E41CE05F93012756E002BB279520F46D
:1006B000515021F4220FF9CF012756E000003B5A98
:1006C00002BBD0F2279528F4515029F4220F0000E4
:1006D000F9CF012756E0279502BB20F4515021F4B1
:1006E000220FF9CF012756E02991332302BB21F6CF
:1006F000037F1091F702110FC651D04002BB11F0D9
:100700001093F10210E41ABF086011B3137F402F59
:10071000437F5F9100C000C002BB11BB42BB66CFEC
:10072000962F40E022B32F7922BBC39A38E0C398BA
:10073000440F8799416097FD206487FD206222BBAA
:10074000C39A2F79880F990FC398315089F722BB2C
:10075000C39AC398C39AC398842F99270895109277
:100760008D00C59A85B58F7E85BDAD9AC0988F9A4C
:1007700087E055D6AD98BA98C29A82E050D68F9845
:1007800088E34DD60895C298BA9AAD9A82B38F790C
:1007900082BBC09AAD98C598089581E080938D0082
:1007A00008950895CF93C0E080918E002AD687994E
:1007B00008C08091EA03882311F4C0E802C0879B37
:1007C000F8CF8C2F9927CF9108951F93CF93182F8F
:1007D000C0E060E88CE4A4DF6C2F84E6A1DF6C2F1E
:1007E0008CE69EDF80918E00882319F0DBDFC82F16
:1007F00002C0812F0ED660E08CE492DF8C2F992707
:10080000CF911F910895FC01808180938E0081819A
:10081000DCDF99270895FC01818180938E008AE0B6
:10082000D4DF992708959F92AF92BF92CF92DF9223
:10083000EF92FF920F931F93CF93DF93FC01F62E5D
:10084000838180938E008F010C5F1F4FB180A28047
:100850008FEF982EEE248A2D869581958770890DCD
:10086000891519F096948150E8F7FF2011F061E1A5
:1008700002C0969460E18CE453DFA8956091E60392
:100880008CE04EDFCA2CDD24E8012196C0FE2DC08D
:10089000F80180818E01682F8CE242DFFF2031F069
:1008A00060E08DE63DDF60E08CE60AC089918E0154
:1008B000682F8CE335DF6F2D8DE732DF6F2D8CE7EE
:1008C0002FDFC091E603CF5FC921E9F5A7FE3BC04A
:1008D0006091E7038CE124DF6C2F84E621DF6C2F2D
:1008E0008CE61EDF5FDFE82E2EC06091E7038CE10F
:1008F00017DFF80180818E01682F8CE211DFFF2065
:1009000049F060E08DE60CDF60E084E609DF60E03E
:100910008CE614C06F2D84E603DF6F2D8CE600DFBC
:1009200041DFE82E8823B9F489918E01682F8CE38A
:10093000F7DE6E2D84E7F4DE6E2D8CE7F1DE32DF1C
:10094000E82E882341F49CD3FF2011F4BA9419F0C7
:10095000BA9409F092CFC0FE02C0C6FE03C060E0A8
:100960008CE4DEDE8E2D9927DF91CF911F910F91C0
:10097000FF90EF90DF90CF90BF90AF909F90089541
:10098000DF92EF92FF920F931F93CF93DF93DC01DF
:10099000FB01D42EFC90EC01E98011928F014423DD
:1009A00011F063E001C062E08CE4BADEE701219758
:1009B000EFEFCF3FDE0721F1A8956091E6038CE0D1
:1009C000AFDE6091E7038CE1ABDE60E088E6A8DE95
:1009D00060E08CE6A5DEF80181938F01DD2051F403
:1009E0006D2D88E79DDE6D2D8CE79ADEF8018193F1
:1009F0008F01219745D32197FFEFCF3FDF07E1F626
:100A0000E8011882C7010296DF91CF911F910F91E3
:100A1000FF90EF90DF9008950F931F93182F042FEE
:100A20008CE47EDE612F8CE27BDE60E0802F8466CA
:100A300077DE60E0802F8C6673DEB4DE182F60E016
:100A40008CE46EDE812F99271F910F910895FC0190
:100A5000828180938E004081442329F0413011F43B
:100A600040E101C042E060E48181D6DF992708952A
:100A7000FC01828180938E0040E060E28181CCDFC6
:100A800099270895FC01838180938E00408144233F
:100A900039F0413011F440E103C0423009F042E145
:100AA00060E48181B9DF99270895FC0183818093F7
:100AB0008E0040E060E28181AFDF992708951F93A7
:100AC000182F64E08CE42CDE60E0812F886628DE3D
:100AD00060E0812F8C6624DE99271F910895FC0128
:100AE0008081882349F0813011F482E105C0823091
:100AF00019F080EC90E00895E2DF9927089580E1F5
:100B0000DEDF992708950F931F93182F062F68E0B3
:100B10008CE406DE612F8CE003DE60E0802F8866C7
:100B2000FFDD60E0802F8C66FBDD99271F910F9120
:100B30000895FC0160E08081E6DF9927089560E177
:100B400080E0E1DF99270895CF92DF92EF92FF9244
:100B50000F931F93CF936C01162F00E0E0908F004E
:100B6000F894C5B3CF7E11501F3FC9F088E0F82E2E
:100B7000F60101916F0107FDC061C5BB78948E2D10
:100B80004ED4F894AA9A000FCF7E9B9B0160789474
:100B90008E2D45D4F894AA98FA9469F7E4CF789406
:100BA000802F9927CF911F910F91FF90EF90DF90A9
:100BB000CF90089595B39B7E95BBAD9A2AD485B509
:100BC0008F7E85BDC498BC9AAD98C59808950F9343
:100BD0001F93CF93DF93EC0180917A004981849930
:100BE00002C08DE01FC08823E9F0813019F4109213
:100BF0008F001AC0823011F481E014C0833029F4D0
:100C000082E010C080E090E049C0992701969C01E5
:100C100054E0959587955A95E1F735952795359543
:100C20002795820F80938F00C59A85B38B7E85BBF5
:100C3000AD9ABC98C49A85B5806185BD842FE9D3EF
:100C400080918F00ECD3AD9880918F00E8D3AD9A5E
:100C50008A81DFD30FE1A8956E81CE01079674DFFC
:100C6000182F9E81943048F484E0891B9E01290F3F
:100C7000311D682FC901079667DF8D81181711F2A2
:100C8000AA9A80918F00CBD3AA9880918F00C7D366
:100C9000015008F780E08EDF80EC90E0DF91CF918B
:100CA0001F910F9108950F931F938C01FC01808178
:100CB00081DFF8018181ADD31F910F910895A1D3F8
:100CC00007C08091EA03882319F481E890E0089531
:100CD00080EF809390001092910064E080E990E0B2
:100CE00033DF992781709070882359F780E090E076
:100CF0000895FF920F931F93CF938C01FC01C08145
:100D0000FF2464E0029620DFF8018181882339F016
:100D1000CA3008F4CAE08C2FD2DFF82E02C08C2F24
:100D200078D38F2D9927CF911F910F91FF90089520
:100D30007F928F929F92AF92BF92CF92DF92EF926B
:100D4000FF920F931F93CF93DF93EC01062F99240B
:100D5000B880A9808A8180FF05C0A0E27A2EF0E4E5
:100D60008F2E04C0E4E07E2E78E0872E002399F4D5
:100D70008091E90387FF0FC08DE48093900000937A
:100D800091008091E803809392000093930064E0C7
:100D900080E990E0D9DEEE24FF24EA14FB0408F099
:100DA00064C06E01A8958091E703809391008091C3
:100DB000E60380939200F6018185809393001C8165
:100DC000002321F4177FE0FE02C0186059D1109370
:100DD000900064E080E990E0B7DE2A8120FF0EC039
:100DE000C5010197E816F906A0F127FF32C08D81F1
:100DF0008093900064E080E990E0A6DE9A81892FDC
:100E00008721F9F0F60111858F81181701F1888586
:100E10001817E9F09E81977FE0FC9860909390000E
:100E20008B81EFD207C08091EA03882319F460E830
:100E3000962E0FC064E080E990E086DE811799F776
:100E400008C0982121F08B813ADF982E02C08B8157
:100E5000E0D20894E11CF11C0894C11CD11C99201B
:100E600021F4EA14FB0408F49DCF892D9927DF9122
:100E7000CF911F910F91FF90EF90DF90CF90BF9097
:100E8000AF909F908F907F900895BF92CF92DF9206
:100E9000EF92FF920F931F93CF93DF93EC016B01BF
:100EA000B42E10929300442389F48091E90387FFC4
:100EB0000DC08DE480939000409391008091E803F1
:100EC0008093920064E080E990E03EDEF880E98063
:100ED00086010F5F1F4FF6011082DA80C0E0D0E07C
:100EE000CE15DF05F8F4A8958091E7038093910073
:100EF0008091E60380939200BB2041F4C0FF03C0C1
:100F0000F8E0DF2A03C087EFD82201C0B9D0D09221
:100F1000900064E080E990E017DEF80181938F0192
:100F20002196DECFF8011082C7010296DF91CF91A2
:100F30001F910F91FF90EF90DF90CF90BF90089599
:100F400064E002DE80E090E008951F93CF93DF938A
:100F5000EC0168810196F8DD182F9881943040F4F7
:100F600084E0891BC90FD11D682FCE010196ECDDED
:100F7000812F9927DF91CF911F910895AF92BF9252
:100F8000DF92EF92FF920F931F93CF93DF93EC01C9
:100F90005B0118818A81811708F4182F612FCE0117
:100FA0000396D2DD75010894E11CF11CDD248881D3
:100FB0009927012F1127801B910B18161906D4F4BD
:100FC000CE01800F911F8D0D911D61E00396BCDD58
:100FD000982F8981D81618F4F70191937F01A8956D
:100FE000D3942D2D332788819927801B910B2817A7
:100FF000390734F38981D81660F41092900061E0CB
:1010000080E990E0A1DDF70181937F01A895D39459
:10101000F1CFF5011082F70110828981992702969C
:10102000DF91CF911F910F91FF90EF90DF90BF90D4
:10103000AF9008951F920F920FB60F9211242F9325
:101040008F939F93EF93FF932CB1E0911D039E2FFD
:101050009F5F983C08F090E080911C03981731F056
:10106000FF27E45EFC4F228390931D03FF91EF91D5
:101070009F918F912F910F900FBE0F901F901895F9
:101080008091E6039091E703A091E803B091E90312
:101090000196A11DB11D8093E6039093E703A093F1
:1010A000E803B093E90308959C0140E08BE180934D
:1010B000B201809195008093B3013093B4012093E5
:1010C000B5018EE08093B6011092CC021092CB0253
:1010D0002A5F3F4F3093CE022093CD02E2EBF1E046
:1010E000225030408FEF2F3F380729F08191482759
:1010F00021503040F7CF40830895CF93DF93C2E073
:10110000D0E0809199008093B7011092B80199279F
:10111000AA27BB27FC013197EC33F10508F0B8C0D2
:10112000ED5EFF4F09946AED70E089EB91E0CAD360
:10113000CBE0B1C0E0919A0020919B00E63939F4F0
:1011400085B5887F922F9770892B85BD03C0E739BD
:1011500009F423BDEF71FF27EE59FF4F20839BC099
:10116000E0919A00E63929F485B599278770907047
:101170005AC0E73911F483B505C0EF71FF27EE5966
:10118000FF4F808199274FC0E9EEF3E0AAE9B0E074
:1011900093E08D9180833197915097FFFACF7BC078
:1011A0008AE990E0DCDA77C08AE990E0ECDA73C093
:1011B0008AE990E028DB6DC061E08AE990E033DBEA
:1011C00068C041E068EB71E08AE990E0D9DB5DC07E
:1011D0008AE990E03CDC5DC08AE990E049DC59C0D6
:1011E0008AE990E0DADA57C08AE990E0DADA53C0A7
:1011F0008AE990E010DB4DC060E0DFCF40E0E2CF55
:101200008AE990E03FDC45C08AE990E068DC0BC0E9
:101210008AE990E04ADC3DC072DC05C08AE990E0D2
:1012200088DC01C08CDC8093B901C3E034C08AE95A
:1012300090E0CDDC2EC08AE990E035DD2CC08AE953
:1012400090E057DD26C060E003C040E006C061E0EA
:101250008AE990E06DDD1DC041E068EB71E08AE94C
:1012600090E013DE12C08AE990E06FDE8093B9014E
:101270001092BA01C4E00FC08AE990E061DE09C0B3
:1012800068EB71E08AE990E079DEEC01219603C019
:1012900080EC8093B801CE0107DFDF91CF910895F4
:1012A000982F8091EB03882321F41092AE011092C5
:1012B000AD01E091AD01F091AE01309761F49B3149
:1012C00009F062C09093940081E090E09093AE01A9
:1012D0008093AD0159C021E0E931F20708F050C018
:1012E0009F01EC56FF4F90832F5F3F4F3093AE012D
:1012F0002093AD0124303105A9F4809197008093AB
:10130000AF01809196008093B0018091AF019091E0
:10131000B00106969093B0018093AF018A5191403D
:1013200098F12EC02530310519F49E3069F128C09E
:101330002530310548F18091AF019091B001281717
:10134000390711F590E0A4E9B0E02115310559F015
:10135000F9018D9198273197E1F7F093AE01E09371
:10136000AD01992321F481E08093B1010DC080EBA0
:101370008093B7018093B80182E090E095DE04C0CD
:101380001092AE011092AD0188EC8093EB030895AA
:101390002091CD023091CE028091CB029091CC026F
:1013A000281B390BC90108952091CD023091CE023E
:1013B0002115310519F48FEF9FEF08958091CB022D
:1013C0009091CC02FC01EE54FE4F01969093CC021A
:1013D0008093CB02E0818217930740F01092CE02F7
:1013E0001092CD021092CC021092CB028E2F992730
:1013F00008958091B101882319F01092B1017DDE2A
:101400000895982F96959695891B8F5F8093EA0390
:101410000895F7DF8091EA038823E1F70895982F74
:10142000F89481E080BF22B7290F789482B7821B9D
:10143000EAF3089578941F920F920FB60F92112439
:101440008F93F8948091EA03882329F08091EA032E
:1014500081508093EA037894F894809182008150BF
:1014600080938200882371F489E4809382007894C9
:101470008091EB03882339F08091EB0381508093B6
:10148000EB0301C078948F910F900FBE0F901F90C7
:10149000189578941F920F920FB60F9211242F93E4
:1014A0003F938F939F9324B135B187B18F70D9F457
:1014B00088E393E0821B930B25E0880F991F2A9500
:1014C000E1F7865D9E4F181619061CF081E090E04A
:1014D00006C021E08B39920714F08AE991E09BBDA8
:1014E0008ABD81EC0AC0285F3F4F84E0369527957E
:1014F0008A95E1F72093760080EC87B9369A9F9120
:101500008F913F912F910F900FBE0F901F901895C4
:1015100080EC87B98DE886B9369A08952091D90272
:10152000FC018381222379F0813019F427E931E02D
:101530000EC0823021F425E731E082E20DC027E8B9
:1015400031E089E009C0813021F423E631E082E115
:1015500003C020E231E083E43093F5022093F402EB
:1015600099270895FC01808180768032E9F490917A
:10157000D9028181992381F0813011F0893011F5F0
:1015800082818093D7028281853011F483E001C08B
:1015900081E08093D80205C08052823098F4909305
:1015A000D8028FEF90E00895803461F4818181301A
:1015B00029F482815D9BFECF8CB904C0823011F486
:1015C00084E0E7CF80E090E008950F931F93CF93DE
:1015D000DF93DC01062F9091D802992359F4FD0185
:1015E000A3E8B0E087E00D9001928150E1F787E039
:1015F00090E086C09430F1F490E011C0ED011196B6
:10160000E22FFF27E45EFC4F3281822F8F5F8093B1
:101610001C03883C10F010921C0338839F5F9017C6
:1016200030F420911C0380911D03281739F7892F6E
:10163000992766C09330E1F5AD018091D7028530DE
:10164000B9F48D93AD01FD014F5F5F4F90911D0384
:1016500080911C03292F281B981708F42853822FE8
:1016600099278083202F225081E08093D70201C0E8
:10167000262F8091D702882309F43DC090911C0346
:1016800080911D03981749F1DA014F5F5F4FE92FF1
:10169000FF27E45EFC4F3281892F8F5F80931C030C
:1016A000883C10F010921C033C93215039F723C062
:1016B000892F8150823010F5ED01913089F48091AD
:1016C000D702899365DE91118FEF88832196102FC1
:1016D000125082E08093D80204C01092D7020BC04F
:1016E000162F8091D702882331F05EDE9923ACF368
:1016F00089931150D1F7802F992702C080E090E0A4
:10170000DF91CF911F910F9108950F931F93CF9366
:10171000DF93FC01162F9091D802992359F48BE4A2
:101720008093E602A3E8B0E087E001900D9281503B
:10173000E1F745C0933001F5DF0190E0683009F032
:1017400091E08091D702853039F481818195809331
:10175000D702DF01129612508091D702882349F0F8
:101760002D915D9BFECF2CB98F5F8093D7021150D6
:1017700099F7892F992725C0892F81508230F8F455
:10178000EF0100E0683009F001E0913041F4898117
:101790008093D7022296125082E08093D8028091E3
:1017A000D702882349F089917BDD8091D70281504F
:1017B0008093D702115099F7802F992702C081E0BA
:1017C00090E0DF91CF911F910F9108950F931F9398
:1017D000CF938C01C62FF80181918F0161DDC1503B
:1017E000D1F7CF911F910F910895CFE5D4E0DEBFDF
:1017F000CDBF88E190E02EE00FB6F894A89581BDAA
:101800000FBE21BD86E289B988E98AB9A49AAC9A4B
:10181000A498AC9883B3992724E0969587952A9548
:10182000E1F721E0822782238093D90228BB8FE34E
:1018300087BB88E085BB84E384BB83E182BB81E610
:1018400081BB8B9A2FEFA89588EB9BE00197F1F76E
:101850002150C9F78B9883E083BF81E089BF82E87C
:101860008FBD29E02EBD81E090E09BBD8ABD25BDE6
:1018700082E083BD4DDEE2D57894A895DDD4B9DD54
:101880006091D9026623C9F78091E50284FFF5CF04
:10189000C62F06C0EC2FFF27E153FD4F8083CF5F9B
:1018A000C83018F481DD9923ACF7CC2321F4809162
:1018B0008A00882311F3C0938A006C2F8FEC92E08A
:1018C000B3D4DBCFFB01DC0105900D920020E1F7E2
:0418D0000895FFCFA9
:1018D4005AFF0000000000000000000000000000AB
:1018E400000001020400320001800200AA0000008E
:0C18F40000000180250000000008010039
:00000001FF
