:100000000C94E7000C9466020C9404010C94040117
:100010000C9404010C9404010C9404010C9404014C
:100020000C9404010C9404010C9404010C9404013C
:100030000C9404010C9404010C9404010C9404012C
:100040000C9403080C9404010C9404010C94040116
:100050000C9404010C9404010C9404010C9404010C
:100060000C9404010C940401B206BA06D3063107BD
:100070003107EC0631073107310731073107310706
:10008000310731073107F806FD06020707070907A0
:100090000B07110723071907230719071907190762
:1000A0002807310731073107310731073107310799
:1000B0003107310731073107310731073107310780
:1000C0003407120361007600720064006F00700054
:1000D0006500720014034100560052002D004400D8
:1000E0006F0070006500720012036F006200640010
:1000F000650076002E0061007400040309040853B3
:10010000544B3530305F32000600FF0901A1011564
:100110000026FF0075088501950E0900B2020185D1
:1001200002951E0900B202018503953E0900B20244
:10013000018504957E0900B202018505953E0900FE
:10014000B20201C0090243000201008064090400F8
:10015000000102020100052400100104240202052E
:100160002406000105240103010705830308006438
:1001700009040100020A000000070501020800004E
:10018000070581020800001201100102000008C0EA
:1001900016E105000101020301090222000101002C
:1001A000806409040000010300000009210101002E
:1001B00001223C000705810308000A120101010029
:1001C000000008C016DF0500010102000100112433
:1001D0001FBECFEFD4E0DEBFCDBF11E0A0E0B1E0A5
:1001E000E6E4F4E102C005900D92AC32B107D9F714
:1001F00014E0ACE2B1E001C01D92AA38B107E1F70A
:100200000E94A4090C94220A0C9400001F93CF931F
:10021000DF93DC01162FEA01888184FF05C0898104
:1002200098E88927898302C08AE58883AE014E5FFA
:100230005F4FFA01212F8D91819321501216DCF32B
:10024000612FCA010E9462021C5F1883DF91CF9167
:100250001F91089543E853E00E94060108954EEA75
:1002600053E00E9406010895CF93DF9360919403B9
:10027000635067FDAAC080919103C4EAD3E0C81B14
:10028000D10980919003803120F4CE010E9494091D
:100290009AC08D3209F086C0683009F094C033EC02
:1002A000309378038AE58093000110922C018881B5
:1002B000807621F0CE010E94570860C041E853E0EB
:1002C0002A81809381039981992321F48093820369
:1002D00082E050C0953019F4209395034BC09630BE
:1002E000A9F5382F8B818130F1F08230E1F0833035
:1002F000C1F4222321F434E08AEF90E01EC02130C3
:1003000021F432E188EE90E018C0223021F434E18B
:1003100084ED90E012C02330A1F432E182EC90E051
:100320000CC0813229F4CE010E943308382F09C055
:10033000823239F43CE388E091E090939303809318
:10034000920380E480932C01832F18C0983019F415
:1003500047E953E007C0993019F4209397030AC086
:100360009A3011F481E006C09B3021F4309384036D
:100370003093AF035093930340939203982F8F3F92
:1003800039F4888187FD9E8180E880932C0107C025
:100390008F81882321F48E81891708F4982F9093F8
:1003A000010111C080912C0187FF0DC0CE010E9478
:1003B0002F098F3F21F48EE18093000104C0882330
:1003C00011F010920101109294038091000184FFBA
:1003D00046C0809101018F3F09F441C0682F8930E8
:1003E00008F068E0861B809301018091780398E80B
:1003F000892780937803A9E7B3E06623F1F0809121
:100400002C0187FF05C0CD010E948D08682F15C003
:10041000962FE0919203F091930386FF06C084919A
:100420008D9331969150D9F704C081918D9391505D
:10043000E1F7F0939303E09392037727C62F693097
:1004400040F489E793E00E946202CC5FCC3028F44C
:1004500001C0CEE18FEF80930101C093000194E1D0
:1004600089B1847131F49150D9F7909395039093A9
:100470008F03DF91CF91089580916900836080930D
:100480006900E89A83EC809384038093AF038AE544
:10049000809383038093AE030895A82FB92F80E043
:1004A00090E041E050EA60956F5F58F42D9138EF8D
:1004B00082279795879510F0842795273F5FC8F38B
:1004C000F3CF0895EADF8D939D930895CF93CFB72F
:1004D000CF93DF93C3954C9BE9F74C9B0BC04C9B90
:1004E00009C04C9B07C04C9B05C04C9B03C04C9B58
:1004F00001C08EC06F93C0919103DD27C856DC4FB9
:100500002F9365E54C9B03C02F916F91E6CF0F931E
:100510001F934F9320E040E15F9309B1047104FB06
:1005200027F93F9350E03BE039C0147140642F77C6
:10053000012F53501EC0406819B114712F775350CA
:100540001FC0406409B12F770471D1F153500000EE
:1005500023C0406219B12F77147191F153500000FC
:1005600025C004711027515012F45D5F0000115036
:1005700027952C3F19B1C8F6147101270150279512
:100580002C3FC8F64227499309B1047110274F73D5
:10059000115027952C3FA8F64695469519B1147130
:1005A00079F00127015027952C3F98F66B5A60F39C
:1005B000315009B1B0F600C011E01CBB00271CC0CF
:1005C0003B503195C31BD04011E01CBB0881033C5C
:1005D00021F10B3411F120918F031981110F1213A6
:1005E000EDCF4A81441F093669F10D3211F0013E09
:1005F00029F74F7009F0042F009396033F915F9104
:100600004F911F910F912F916F91CCB3C0FD62CF8D
:10061000DF91CF91CFBFCF911895209196032223E0
:1006200069F3109194031123E9F53430EAF1309322
:10063000940320939003109191033BE0311B30937E
:10064000910332C000919403013064F50AE54F70C4
:1006500049F43091000134FD28C000930001C8E73F
:10066000D3E027C0433049F03091830334FD1DC0EF
:1006700000938303C4E8D3E01CC03091AE0334FD83
:1006800014C00093AE03CFEAD3E013C0052710E0F7
:1006900000C000000BB91AC0052710E0221F1DC0C2
:1006A00010E021C04AE502C032ED432FC4E1D0E0A2
:1006B00032E01AB114615C9A0BB11AB954E120E826
:1006C00065E320FF05270BB9279517951C3FF0F62A
:1006D0006695B8F7B1F720FF05270BB92795179551
:1006E0001C3FD0F62795179517FF052700001C3FE4
:1006F0000BB9B0F629913A9519F70B7E1091950335
:10070000110FC651D0400BB911F010938F0311E0B7
:100710001CBB00611AB11B7E402F4B7E54E05A95E2
:10072000F1F70BB91AB94BB969CFCF92DF92EF92BB
:10073000FF920F931F93CF936C01162F00E0E09070
:100740002D01F894C5B1C77F11501F3FD9F088E043
:10075000F82EF60101916F0107FDC860C5B97894C4
:100760008E2D0E94F807F8942D9A000FC77F1C99D0
:10077000016078948E2D0E94F807F8942D98FA94D1
:1007800059F7E2CF7894802F9927CF911F910F913D
:10079000FF90EF90DF90CF900895259823982198AF
:1007A00022982D982B9888B1877E88B9419A089510
:1007B0000F931F93CF93DF93EC0180911A0119815E
:1007C000882361F0813019F410922D0123C082300A
:1007D00011F481E003C0833039F482E080932D016D
:1007E00019C080E090E05BC099270196AC019C01A4
:1007F00073E0359527957A95E1F795958795821B56
:10080000282FCA0135E0959587953A95E1F7280F8D
:1008100020932D01419888B1886188B9219A259A41
:10082000239A88EC0E94F107229A812F0E94F107F7
:1008300080912D010E94F8072A9A80912D010E9433
:10084000F8072A988A810E94F1070FE1A8956E8126
:10085000CE0107960E949503182F9E81943050F484
:1008600084E0891B9E01290F311D682FC90107965D
:100870000E9495038D81181709F4B3CF2D9A8091AA
:100880002D010E94F8072D9880912D010E94F807F4
:100890000150E0F680E00E94CD0380EC90E0DF9113
:1008A000CF911F910F9108950F931F938C01FC011D
:1008B00080810E94CD03F80181810E94F1071F9180
:1008C0000F9108950E94ED0707C080918804882346
:1008D00019F481E890E0089580EF80932E01109242
:1008E0002F0164E08EE291E00E94950399278170C8
:1008F0009070882351F780E090E00895FF920F9365
:100900001F93CF938C01FC01C081FF2464E0029609
:100910000E949503F8018181882341F0CA3008F4D0
:10092000CAE08C2F0E946204F82E03C08C2F0E9414
:10093000F1078F2D9927CF911F910F91FF90089567
:100940007F928F929F92AF92BF92CF92DF92EF925F
:10095000FF920F931F93CF93DF93EC01062F9924FF
:10096000B880A9808A8180FF05C010E2712EB0E4B2
:100970008B2E04C0A4E07A2EF8E08F2E0023A1F481
:100980008091870487FF10C08DE480932E0100932F
:100990002F0180918604809330010093310164E03F
:1009A0008EE291E00E949503EE24FF24EA14FB04FA
:1009B00008F06BC06E01A8958091850480932F018B
:1009C0008091840480933001F60181858093310108
:1009D0001C81002321F4177FE0FE03C018600E94F1
:1009E0005A0610932E0164E08EE291E00E94950376
:1009F0002A8120FF0FC0C5010197E816F906C8F14A
:100A000027FF37C08D8180932E0164E08EE291E054
:100A10000E9495039A81892F872109F1F60111859A
:100A20008F81181719F18885181701F19E81977F1A
:100A3000E0FC986090932E018B810E94ED0707C027
:100A400080918804882319F4E0E89E2E12C064E0A7
:100A50008EE291E00E949503811791F70AC09821D8
:100A600029F08B810E946204982E03C08B810E9422
:100A7000F1070894E11CF11C0894C11CD11C9920B9
:100A800021F4EA14FB0408F496CF892D9927DF910D
:100A9000CF911F910F91FF90EF90DF90CF90BF907B
:100AA000AF909F908F907F900895BF92CF92DF92EA
:100AB000EF92FF920F931F93CF93DF93EC016B01A3
:100AC000B42E10923101442391F48091870487FF62
:100AD0000EC08DE480932E0140932F0180918604F7
:100AE0008093300164E08EE291E00E949503F880EB
:100AF000E98086010F5F1F4FF6011082DA80C0E0A7
:100B0000D0E0CE15DF0508F5A89580918504809387
:100B10002F018091840480933001BB2041F4C0FFF9
:100B200003C0F8E0DF2A03C087EFD82202C00E948A
:100B30005A06D0922E0164E08EE291E00E94950365
:100B4000F80181938F012196DCCFF8011082C70153
:100B50000296DF91CF911F910F91FF90EF90DF9060
:100B6000CF90BF90089564E00E94950380E090E0EC
:100B700008951F93CF93DF93EC01688101960E9443
:100B80009503182F9881943048F484E0891BC90F8D
:100B9000D11D682FCE0101960E949503812F9927C0
:100BA000DF91CF911F910895AF92BF92DF92EF92A4
:100BB000FF920F931F93CF93DF93EC015B0118819A
:100BC0008A81811708F4182F612FCE0103960E94A5
:100BD000950375010894E11CF11CDD248881992797
:100BE000012F1127801B910B18161906DCF4CE017A
:100BF000800F911F8D0D911D61E003960E9495035A
:100C0000982F8981D81618F4F70191937F01A89540
:100C1000D3942D2D332788819927801B910B28177A
:100C200039072CF38981D81668F410922E0161E0FF
:100C30008EE291E00E949503F70181937F01A895D0
:100C4000D394F0CFF5011082F701108289819927A2
:100C50000296DF91CF911F910F91FF90EF90DF905F
:100C6000BF90AF9008951F920F920FB60F9211246C
:100C70002F938F939F93EF93FF932091C600E09162
:100C8000BB039E2F9F5F983C08F090E08091BA03D1
:100C9000981731F0FF27E654FC4F22839093BB0353
:100CA000FF91EF919F918F912F910F900FBE0F9019
:100CB0001F9018958091840490918504A0918604DA
:100CC000B09187040196A11DB11D80938404909377
:100CD0008504A0938604B093870408959C0140E0A6
:100CE0008BE18093500280913301809351023093C5
:100CF0005202209353028EE08093540210926A03B2
:100D0000109269032A5F3F4F30936C0320936B036B
:100D1000E0E5F2E0225030408FEF2F3F380729F016
:100D20008191482721503040F7CF40830895CF93D9
:100D3000DF93C2E0D0E0809137018093550210929A
:100D400056029927AA27BB27FC013197ED32F105FE
:100D500008F087C0EC5CFF4FEE0FFF1F0590F49189
:100D6000E02D09946EEF70E087E592E00E941B0A87
:100D7000CBE07AC0E091380120913901E63949F49D
:100D80008091B100887F922F9770892B8093B1005A
:100D900004C0E73911F42093B300EF71FF27EE5F31
:100DA000FE4F208361C0E0913801E63931F4809133
:100DB000B1009927877090700BC0E73919F48091C2
:100DC000B30005C0EF71FF27EE5FFE4F80819927CA
:100DD00080935702C3E048C0E7E8F4E0A8E3B1E03D
:100DE00093E08D9180833197915097FFFACF3CC06B
:100DF00088E391E00E94D80335C088E391E00E9427
:100E0000540432C088E391E00E947E042BC060E06D
:100E100003C040E007C061E088E391E00E94A004C5
:100E200021C041E066E572E088E391E00E9455054B
:100E300015C088E391E00E94B90580935702109293
:100E40005802C4E011C088E391E00E94B3050AC0D3
:100E500066E572E088E391E00E94D405EC012196FA
:100E600003C080EC80935602CE010E946E06DF9193
:100E7000CF910895982F80918904882321F41092AE
:100E80004C0210924B02E0914B02F0914C023097D1
:100E900061F49B3109F063C09093320181E090E0EE
:100EA00090934C0280934B025AC021E0E931F20743
:100EB00008F051C09F01EE5CFE4F90832F5F3F4FC3
:100EC00030934C0220934B0224303105A9F48091D9
:100ED000350180934D028091340180934E028091C0
:100EE0004D0290914E02069690934E0280934D02D1
:100EF0008A519140A0F12FC02530310519F49E3060
:100F000071F129C02530310550F180914D02909149
:100F10004E022817390719F590E0A2E3B1E0211538
:100F2000310559F0F9018D9198273197E1F7F09348
:100F30004C02E0934B02992321F481E080934F020D
:100F40000EC080EB809355028093560282E090E0C1
:100F50000E946E0604C010924C0210924B0288EC64
:100F600080938904089520916B0330916C038091E4
:100F7000690390916A03281B390BC90108952091D8
:100F80006B0330916C032115310519F48FEF9FEF3E
:100F900008958091690390916A03FC01E05BFD4F25
:100FA000019690936A0380936903E0818217930707
:100FB00040F010926C0310926B0310926A0310922F
:100FC00069038E2F9927089580914F02882321F07D
:100FD00010924F020E94970608958F5F80938804B5
:100FE00008950E94ED07809188048823E1F7089511
:100FF000982FF89481E083BD26B5290F789486B5A3
:10100000821BEAF3089578941F920F920FB60F9205
:1010100011248F93F89480918804882329F080917B
:1010200088048150809388047894F89480912201F8
:10103000815080932201882371F482E680932201FB
:10104000789480918904882339F0809189048150B3
:101050008093890401C078948F910F900FBE0F90F8
:101060001F901895089520917703FC018381222316
:1010700079F0813019F42BEB31E00EC0823021F48D
:1010800029E931E082E20DC02BEA31E089E009C0B4
:10109000813021F427E831E082E103C024E431E02B
:1010A00083E4309393032093920399270895FC01DE
:1010B000808180768032E9F4909177038181992351
:1010C00081F0813011F0893029F582818093750398
:1010D0008281853011F483E001C081E08093760342
:1010E00005C080528230B0F4909376038FEF90E089
:1010F0000895803479F48181813041F49281809126
:10110000C00085FFFCCF9093C60004C0823011F46C
:1011100084E0E4CF80E090E008950F931F93CF9395
:10112000DF93DC01062F90917603992359F4FD019A
:10113000A3E2B1E087E00D9001928150E1F787E0F2
:1011400090E088C09430F1F490E011C0ED01119668
:10115000E22FFF27E654FC4F3281822F8F5F80936E
:10116000BA03883C10F01092BA0338839F5F90173F
:1011700030F42091BA038091BB03281739F7892FE7
:10118000992768C09330E1F5AD01809175038530F2
:10119000B9F48D93AD01FD014F5F5F4F9091BB039B
:1011A0008091BA03292F281B981708F42853822FFF
:1011B00099278083202F225081E08093750301C0FE
:1011C000262F80917503882309F43FC09091BA03BC
:1011D0008091BB03981751F1DA014F5F5F4FE92F00
:1011E000FF27E654FC4F3281892F8F5F8093BA032B
:1011F000883C10F01092BA033C93215039F725C077
:10120000892F8150823020F5ED01913091F4809149
:10121000750389930E94B30791118FEF88832196FC
:10122000102F125082E08093760304C01092750351
:101230000CC0162F80917503882339F00E94BF07D8
:101240009923A4F389931150C9F7802F992702C0DD
:1012500080E090E0DF91CF911F910F9108950F935F
:101260001F93CF93DF93FC01162F90917603992360
:1012700059F48BE480938403A3E2B1E087E001900A
:101280000D928150E1F749C0933019F5DF0190E0EC
:10129000683009F091E080917503853039F48181DF
:1012A000819580937503DF0112961250209175038A
:1012B000222361F03D918091C00085FFFCCF3093E7
:1012C000C6002F5F20937503115081F7892F99274E
:1012D00026C0892F8150823000F5EF0100E0683090
:1012E00009F001E0913041F48981809375032296E1
:1012F000125082E08093760380917503882351F029
:1013000089910E943A0780917503815080937503FB
:10131000115091F7802F992702C081E090E0DF9172
:10132000CF911F910F9108950F931F93CF938C012D
:10133000C62FF80181918F010E943A07C150C9F769
:10134000CF911F910F910895CFEFD4E0DEBFCDBFB5
:1013500088E190E02EE00FB6F894A89580936000A5
:101360000FBE2093600083E38093C40088E98093DC
:10137000C1005F9A85E08A95F1F780E04F9B81E09C
:101380008093770382E015B884B988B98AE187B978
:1013900083E88BB981E08AB9549A2FEFA89580EA47
:1013A0009FE00197F1F72150C9F7549883E085BD7C
:1013B00081E080936E0082E88093800089E18093D1
:1013C00081008FE090E0909387008093860087E013
:1013D00090E090938900809388000E9432080E94D8
:1013E0003C027894A8950E9434010E94E407609121
:1013F00077036623B9F78091830384FFF3CFC62F69
:1014000006C0EC2FFF27E359FC4F8083CF5FC83025
:1014100020F40E94BF079923A4F7CC2321F48091E4
:101420002A018823F9F2C0932A016C2F8DE693E0FC
:101430000E942A01D7CFFB01DC0105900D9200200C
:06144000E1F70895FFCF63
:101446005AFF00000000000000000000000000003D
:10145600000001020400320001800200AA00000020
:0C146600000001802500000000080100CB
:00000001FF
