:10000000C5C037C2DEC0DDC0DCC0DBC0DAC0D9C0CD
:10001000D8C0A1C7D6C0E3C5D4C0D3C0D2C0D1C058
:10002000D0C0CFC0CEC054C65AC66FC6C2C6C1C6A5
:1000300083C6BFC6BEC6BDC6BCC6BBC6BAC6B9C6E9
:10004000B8C6B7C685C688C68BC68EC68FC690C6CC
:1000500094C6A3C699C6A1C697C696C695C6A1C69C
:10006000A8C6A7C6A6C6A5C6A4C6A3C6A2C6A1C63C
:10007000A0C69FC69EC69DC69CC69BC69AC69CC669
:10008000120361007600720064006F00700065006A
:10009000720014034100560052002D0044006F000E
:1000A00070006500720012036F006200640065005A
:1000B00076002E0061007400040309040853544BB9
:1000C0003530305F32000600FF0901A1011500261E
:1000D000FF0075088501950E0900B20201850295A1
:1000E0001E0900B202018503953E0900B202018596
:1000F00004957E0900B202018505953E0900B20211
:1001000001C00902430002010080640904000001EB
:100110000202010005240010010424020205240645
:100120000001052401030107058303080064090495
:100130000100020A0000000705010208000007058F
:1001400081020800001201100102000008C016E13F
:10015000050001010203010902220001010080647F
:10016000090400000103000000092101010001222F
:100170003C000705810308000A120101010000008C
:1001800008C016DF050001010200010011241FBE96
:10019000CFE5D4E0DEBFCDBF10E0A0E6B0E0E2E501
:1001A000F3E102C005900D92AC38B107D9F713E026
:1001B000ACE8B0E001C01D92AA3EB107E1F762D8F9
:1001C000C7C81ECF1F93CF93DF93DC01162FEA0120
:1001D000888184FF05C0898198E88927898302C0C6
:1001E0008AE58883AE014E5F5F4FFA01212F8D9122
:1001F000819321501216DCF3612FCA0136D11C5FA6
:100200001883DF91CF911F91089543EE52E0DADF1A
:1002100008954EE053E0D6DF0895CF93DF936091C9
:10022000F402635067FDA6C08091F102C4E0D3E000
:10023000C81BD1098091F002803118F4CE0113D887
:1002400097C08D3209F084C0683009F091C033EC5A
:100250003093D8028AE58093600010928C008881E8
:10026000807619F0CE01CBD65FC041EE52E02A81F4
:100270008093E1029981992321F48093E20282E044
:100280004FC0953019F42093F5024AC09630A1F57D
:10029000382F8B818130F1F08230E1F08330C1F46E
:1002A000222321F434E088EB90E01DC0213021F4BA
:1002B00032E186EA90E017C0223021F434E182E98D
:1002C00090E011C0233099F432E180E890E00BC057
:1002D000813221F4CE016FD6382F09C0823239F431
:1002E0003CE386EC90E09093F3028093F20280E48A
:1002F00080938C00832F18C0983019F447EF52E098
:1003000007C0993019F42093F7020AC09A3011F40B
:1003100081E006C09B3021F43093E40230930F0358
:100320005093F3024093F202982F8F3F39F4888163
:1003300087FD9E8180E880938C0007C08F81882391
:1003400021F48E81891708F4982F9093610010C0D2
:1003500080918C0087FF0CC0CE0124D78F3F21F401
:100360008EE18093600004C0882311F01092610038
:100370001092F4028091600084FF44C0809161007B
:100380008F3F09F43FC0682F893008F068E0861B72
:10039000809361008091D80298E889278093D802E1
:1003A000A9EDB2E06623E9F080918C0087FF04C0DC
:1003B000CD0158D6682F15C0962FE091F202F0912A
:1003C000F30286FF06C084918D9331969150D9F740
:1003D00004C081918D939150E1F7F093F302E09383
:1003E000F2027727C62F693038F489ED92E03DD0CC
:1003F000CC5FCC3028F401C0CEE18FEF8093610058
:10040000C093600094E186B3837031F49150D9F7C2
:100410009093F5029093EF02DF91CF91089585B705
:10042000836085BF8BB780648BBF83EC8093E402CD
:1004300080930F038AE58093E30280930E0308956F
:10044000A82FB92F80E090E041E050EA60956F5FFF
:1004500058F42D9138EF82279795879510F08427CF
:1004600095273F5FC8F3F3CF0895EADF8D939D93FF
:100470000895CF93CFB7CF93C395B09BE9F7B09BC7
:1004800009C0B09B07C0B09B05C0B09B03C0B09B28
:1004900001C0A6C0DF93C091F102DD27C850DD4F37
:1004A000B09B02C0DF91EBCF2F930F931F9306B346
:1004B0002FEF00FB20F94F933F9316B34FEF012727
:1004C00000FB21F93BE031C04E7F012F16B32160C4
:1004D00028C0102F4D7F2260000006B329C04B7F3B
:1004E0002460012F000016B32BC016B3477F28608D
:1004F0002AC04F7E06B320612CC04F7D16B3206208
:100500002FC04F7B06B3206432C0422706B3499305
:100510004FEF0000102710FB20F916B31370C9F13C
:10052000297F91F2012700FB21F906B3237F89F28D
:10053000315058F1102710FB22F916B3277E79F2BB
:10054000012700FB23F92F7C81F206B3102710FB53
:1005500024F92F7971F200C016B3012700FB25F9A9
:100560002F7359F200C006B3102710FB26F9223072
:1005700040F200C016B3012700FB27F9243028F60B
:100580004F77206816B30000F9CF10E41ABF002798
:100590001CC03B503195C31BD04010E41ABF0881EA
:1005A000033C11F10B3401F12091EF021981110F7D
:1005B0001213EDCF4A81441F093659F10D3211F063
:1005C000013E29F74F7009F0042F0093F6023F9186
:1005D0004F911F910F912F91DF91CAB7C6FD4CCF5C
:1005E000CF91CFBFCF9118952091F602222379F3B6
:1005F0001091F4021123C1F53430C2F13093F402AA
:100600002093F0021091F1023BE0311B3093F10294
:100610002DC00091F40201303CF50AE54F7049F419
:100620003091600034FD24C000936000C8EDD2E03A
:1006300023C0433049F03091E30234FD19C00093E8
:10064000E302C4EED2E018C030910E0334FD10C0B6
:1006500000930E03CFE0D3E00FC02795A8F45150CC
:10066000A9F4220F0000F9CF4AE503C042ED01C012
:10067000432FC4E1D0E032E017B31360C09A17BB38
:1006800008B320E413E05F93012756E008BB2795E9
:1006900020F4515021F4220FF9CF012756E0000039
:1006A0003B5A08BBD0F2279528F4515029F4220F69
:1006B0000000F9CF012756E0279508BB20F45150E0
:1006C00021F4220FF9CF012756E02991332308BBEB
:1006D00021F60C7F1091F502110FC651D04008BBD6
:1006E00011F01093EF0210E41ABF016017B31C7FE2
:1006F000402F4C7F5F9100C000C008BB17BB48BBB8
:1007000066CFCF92DF92EF92FF920F931F93CF931A
:100710006C01162F00E0E0908D00F894C8B3C77FFD
:1007200011501F3FC9F088E0F82EF60101916F01CA
:1007300007FDC860C8BB78948E2D02D4F894C59A82
:10074000000FC77FB499016078948E2DF9D3F89487
:10075000C598FA9469F7E4CF7894802F9927CF91C0
:100760001F910F91FF90EF90DF90CF900895BD986B
:10077000BB98BA98C598C39885B3877E85BBA99A5C
:1007800008950F931F93CF93DF93EC0180917A002C
:1007900019818823E9F0813019F410928D001AC074
:1007A000823011F481E014C0833029F482E010C05B
:1007B00080E090E048C0992701969C0144E095951F
:1007C00087954A95E1F73595279535952795820FB9
:1007D00080938D00A99885B3886185BBBD9ABB9A2B
:1007E00088ECA8D3BA9A812FA5D380918D00A8D385
:1007F000C29A80918D00A4D3C2988A819BD30FE1C5
:10080000A8956E81CE0107967CDF182F9E819430CB
:1008100048F484E0891B9E01290F311D682FC9010E
:1008200007966FDF8D81181719F2C59A80918D0098
:1008300087D3C59880918D0083D3015008F780E05D
:1008400096DF80EC90E0DF91CF911F910F9108959A
:100850000F931F938C01FC01808189DFF801818156
:1008600069D31F910F9108955DD307C08091E8036C
:10087000882319F481E890E0089580EF80938E003A
:1008800010928F0064E08EE890E03BDF9927817042
:100890009070882359F780E090E00895FF920F93BD
:1008A0001F93CF938C01FC01C081FF2464E002966A
:1008B00028DFF8018181882339F0CA3008F4CAE0C2
:1008C0008C2FD2DFF82E02C08C2F34D38F2D992796
:1008D000CF911F910F91FF9008957F928F929F92D9
:1008E000AF92BF92CF92DF92EF92FF920F931F933E
:1008F000CF93DF93EC01062F9924B880A9808A81D9
:1009000080FF05C0F0E27F2EE0E48E2E04C074E08C
:10091000772E68E0862E002399F48091E70387FF05
:100920000FC08DE480938E0000938F008091E603CA
:10093000809390000093910064E08EE890E0E1DE07
:10094000EE24FF24EA14FB0408F064C06E01A895AD
:100950008091E50380938F008091E4038093900061
:10096000F6018185809391001C81002321F4177F7B
:10097000E0FE02C0186059D110938E0064E08EE84A
:1009800090E0BFDE2A8120FF0EC0C5010197E81666
:10099000F906A0F127FF32C08D8180938E0064E0BC
:1009A0008EE890E0AEDE9A81892F8721F9F0F6017A
:1009B00011858F81181701F188851817E9F09E813C
:1009C000977FE0FC986090938E008B81ABD207C03C
:1009D0008091E803882319F450E8952E0FC064E055
:1009E0008EE890E08EDE811799F708C0982121F0FB
:1009F0008B813ADF982E02C08B819CD20894E11C37
:100A0000F11C0894C11CD11C992021F4EA14FB04A8
:100A100008F49DCF892D9927DF91CF911F910F91D8
:100A2000FF90EF90DF90CF90BF90AF909F908F900E
:100A30007F900895BF92CF92DF92EF92FF920F9333
:100A40001F93CF93DF93EC016B01B42E10929100B2
:100A5000442389F48091E70387FF0DC08DE48093E0
:100A60008E0040938F008091E6038093900064E0B5
:100A70008EE890E046DEF880E98086010F5F1F4F28
:100A8000F6011082DA80C0E0D0E0CE15DF05F8F480
:100A9000A8958091E50380938F008091E403809373
:100AA0009000BB2041F4C0FF03C0F8E0DF2A03C080
:100AB00087EFD82201C0B9D0D0928E0064E08EE8D2
:100AC00090E01FDEF80181938F012196DECFF801BF
:100AD0001082C7010296DF91CF911F910F91FF9075
:100AE000EF90DF90CF90BF90089564E00ADE80E041
:100AF00090E008951F93CF93DF93EC0168810196F6
:100B000000DE182F9881943040F484E0891BC90FCF
:100B1000D11D682FCE010196F4DD812F9927DF9139
:100B2000CF911F910895AF92BF92DF92EF92FF9203
:100B30000F931F93CF93DF93EC015B0118818A81A0
:100B4000811708F4182F612FCE010396DADD7501A5
:100B50000894E11CF11CDD2488819927012F1127BD
:100B6000801B910B18161906D4F4CE01800F911F2B
:100B70008D0D911D61E00396C4DD982F8981D816F3
:100B800018F4F70191937F01A895D3942D2D332765
:100B900088819927801B910B2817390734F38981A5
:100BA000D81660F410928E0061E08EE890E0A9DD26
:100BB000F70181937F01A895D394F1CFF5011082BD
:100BC000F7011082898199270296DF91CF911F91B9
:100BD0000F91FF90EF90DF90BF90AF9008951F921C
:100BE0000F920FB60F9211242F938F939F93EF9331
:100BF000FF932CB1E0911B039E2F9F5F983C08F060
:100C000090E080911A03981731F0FF27E65EFC4FC1
:100C1000228390931B03FF91EF919F918F912F91CE
:100C20000F900FBE0F901F9018958091E403909144
:100C3000E503A091E603B091E7030196A11DB11D64
:100C40008093E4039093E503A093E603B093E70356
:100C500008959C0140E08BE18093B0018091930066
:100C60008093B1013093B2012093B3018EE0809361
:100C7000B4011092CA021092C9022A5F3F4F30930A
:100C8000CC022093CB02E0EBF1E0225030408FEF1A
:100C90002F3F380729F08191482721503040F7CF66
:100CA00040830895CF93DF93C2E0D0E08091970016
:100CB0008093B5011092B6019927AA27BB27FC01A2
:100CC0003197ED32F10508F074C0ED5EFF4F0994E5
:100CD0006CEB70E087EB91E034D3CBE06DC0E0913A
:100CE000980020919900E63939F485B5887F922FD4
:100CF0009770892B85BD03C0E73909F423BDEF71D7
:100D0000FF27EE59FF4F208357C0E0919800E63946
:100D100029F485B59927877090700AC0E73911F4D6
:100D200083B505C0EF71FF27EE59FF4F80819927EA
:100D30008093B701C3E040C0E7EEF3E0A8E9B0E07C
:100D400093E08D9180833197915097FFFACF34C013
:100D500088E990E016DD2EC088E990E079DD2CC0AE
:100D600088E990E09BDD26C060E003C040E006C05B
:100D700061E088E990E0B1DD1DC041E066EB71E023
:100D800088E990E057DE12C088E990E0B3DE8093F6
:100D9000B7011092B801C4E00FC088E990E0A5DE69
:100DA00009C066EB71E088E990E0BDDEEC012196B8
:100DB00003C080EC8093B601CE014BDFDF91CF9171
:100DC0000895982F8091E903882321F41092AC01B3
:100DD0001092AB01E091AB01F091AC01309761F45E
:100DE0009B3109F062C09093920081E090E0909373
:100DF000AC018093AB0159C021E0E931F20708F062
:100E000050C09F01EE56FF4F90832F5F3F4F3093AE
:100E1000AC012093AB0124303105A9F480919500F9
:100E20008093AD01809194008093AE018091AD01DB
:100E30009091AE0106969093AE018093AD018A51D8
:100E4000914098F12EC02530310519F49E3069F19A
:100E500028C02530310548F18091AD019091AE0157
:100E60002817390711F590E0A2E9B0E02115310506
:100E700059F0F9018D9198273197E1F7F093AC0182
:100E8000E093AB01992321F481E08093AF010DC081
:100E900080EB8093B5018093B60182E090E0D9DECB
:100EA00004C01092AC011092AB0188EC8093E9036E
:100EB00008952091CB023091CC028091C90290918B
:100EC000CA02281B390BC90108952091CB02309129
:100ED000CC022115310519F48FEF9FEF0895809111
:100EE000C9029091CA02FC01E055FE4F0196909311
:100EF000CA028093C902E0818217930740F01092E2
:100F0000CC021092CB021092CA021092C9028E2F0C
:100F1000992708958091AF01882319F01092AF01AD
:100F2000C1DE0895982F96959695891B8F5F8093C3
:100F3000E8030895F7DF8091E8038823E1F7089537
:100F4000982FF89481E080BF22B7290F789482B758
:100F5000821BEAF3089578941F920F920FB60F92B6
:100F600011248F93F8948091E803882329F08091CD
:100F7000E80381508093E8037894F894809182008C
:100F8000815080938200882371F489E480938200E9
:100F900078948091E903882339F08091E9038150A6
:100FA0008093E90301C078948F910F900FBE0F904A
:100FB0001F90189508952091D702FC018381222368
:100FC00079F0813019F429E731E00EC0823021F444
:100FD00027E531E082E20DC029E631E089E009C071
:100FE000813021F425E431E082E103C022E031E0E8
:100FF00083E43093F3022093F20299270895FC01D1
:10100000808180768032E9F49091D70281819923A2
:1010100081F0813011F0893011F582818093D50201
:101020008281853011F483E001C081E08093D60293
:1010300005C08052823098F49093D6028FEF90E0F2
:101040000895803461F48181813029F482815D9B2F
:10105000FECF8CB904C0823011F484E0E7CF80E089
:1010600090E008950F931F93CF93DF93DC01062F39
:101070009091D602992359F4FD01A3E8B0E087E0EE
:101080000D9001928150E1F787E090E086C09430A6
:10109000F1F490E011C0ED011196E22FFF27E65E1A
:1010A000FC4F3281822F8F5F80931A03883C10F0AF
:1010B00010921A0338839F5F901730F420911A031F
:1010C00080911B03281739F7892F992766C0933021
:1010D000E1F5AD018091D5028530B9F48D93AD0174
:1010E000FD014F5F5F4F90911B0380911A03292FE1
:1010F000281B981708F42853822F99278083202FC4
:10110000225081E08093D50201C0262F8091D50224
:10111000882309F43DC090911A0380911B0398170E
:1011200049F1DA014F5F5F4FE92FFF27E65EFC4F81
:101130003281892F8F5F80931A03883C10F01092C0
:101140001A033C93215039F723C0892F81508230F4
:1011500010F5ED01913089F48091D5028993A9DED3
:1011600091118FEF88832196102F125082E0809387
:10117000D60204C01092D5020BC0162F8091D50262
:10118000882331F0A2DE9923ACF389931150D1F773
:10119000802F992702C080E090E0DF91CF911F91CE
:1011A0000F9108950F931F93CF93DF93FC01162F98
:1011B0009091D602992359F48BE48093E402A3E83A
:1011C000B0E087E001900D928150E1F745C0933087
:1011D00001F5DF0190E0683009F091E08091D502DF
:1011E000853039F4818181958093D502DF01129693
:1011F00012508091D502882349F02D915D9BFECF3E
:101200002CB98F5F8093D502115099F7892F9927B8
:1012100025C0892F81508230F8F4EF0100E068305A
:1012200009F001E0913041F489818093D502229642
:10123000125082E08093D6028091D502882349F033
:101240008991BFDD8091D50281508093D5021150E4
:1012500099F7802F992702C081E090E0DF91CF912C
:101260001F910F9108950F931F93CF938C01C62F59
:10127000F80181918F01A5DDC150D1F7CF911F9168
:101280000F910895CFE5D4E0DEBFCDBF88E190E0B7
:101290002EE00FB6F894A89581BD0FBE21BD86E261
:1012A00089B988E98AB9AA9A84E08A95F1F783B363
:1012B00099279695879596958795809581708093C7
:1012C000D70218BA17BA86E085BB8AE184BB83E0EF
:1012D00082BB81E081BBB89A2FEFA89588EB9BE099
:1012E0000197F1F72150C9F7B89883E083BF81E0F7
:1012F00089BF60DE94D87894A8958FD70BDE609173
:10130000D7026623C9F78091E30284FFF5CFC62F89
:1013100006C0EC2FFF27E353FD4F8083CF5FC8301B
:1013200018F4D3DD9923ACF7CC2321F480918A0003
:10133000882311F3C0938A006C2F8DEC92E065D75F
:10134000DBCFFB01DC0105900D920020E1F7089551
:02135000FFCFCD
:101352005AFF000000000000000000000000000032
:10136200000001020400320001800200AA00000015
:0C137200000001802500000000080100C0
:00000001FF
