:1000000012C02CC02BC02AC029C028C027C026C0BF
:1000100025C024C023C022C021C020C01FC01EC0D4
:100020001DC01CC01BC011241FBECFE5D4E0DEBF25
:10003000CDBF10E0A0E6B0E0E4E8F1E102C0059039
:100040000D92A638B107D9F710E0A6E8B0E001C0DC
:100050001D92A13BB107E1F7EED392C8D1CF8064E6
:1000600087B920E030E040E0369A3699FECF84B17F
:1000700095B1280F391F4F5F4431B1F7C90164E1D1
:1000800070E02DD8CB010895482F440F662359F016
:1000900028B381E090E0042E02C0880F991F0A94D3
:1000A000E2F7282B28BB87B321E030E002C0220F03
:1000B000331F4A95E2F7822B87BB84EC99E00197C6
:1000C000F1F787B32095822387BB662319F088B3A5
:1000D000282328BB08954F925F926F927F928F9250
:1000E0009F92AF92BF92CF92DF92EF92FF920F93C7
:1000F0001F93CF93DF93B82E762EA42EA895662E4D
:10010000862F880FC1E0D0E09E0102C0220F331F6E
:100110008A95E2F727BB18BA4B2C5524CE010B2C3D
:1001200002C0880F991F0A94E2F7882E84BB85BB12
:1001300082EE94E00197F1F7842F60E0A5DF872D30
:100140008EDF449740F08A2D61E09EDF872D87DFA8
:10015000449708F028C1CA2CCC0C27B301E010E06A
:10016000C8010C2C02C0880F991F0A94E2F7E82EF0
:10017000282B27BB84EF91E00197F1F7872D6FDFE4
:100180008D5B924008F454C097B38E2D80958923DF
:1001900087BB87B3C3940C2C02C0000F111F0A94B5
:1001A000E2F7CA94102F802B87BB84EC99E001976B
:1001B000F1F7872D54DFEC018A2D51DF9C0187B3C5
:1001C0001095182317BB90918A00892F8250823096
:1001D00060F481E080938700D093A200C093A100D7
:1001E0003093A00020939F0008C0D0939300C09349
:1001F000920030939E0020939D00293C310530F001
:10020000953061F082E080938A0006C0953031F02D
:1002100083E080938A0082E08093890080918A0045
:10022000853031F0A092860070929600B092A300C3
:1002300015BA842D880F21E030E0A90102C0440FD7
:10024000551F8A95E2F7D42E8E2D842B87BB88BB51
:10025000062C02C0220F331F0A94E2F724BBC4EC21
:10026000D9E0CE010197F1F78B2DF9DE845F914043
:1002700008F096C080918700813009F417C288B3D6
:100280009E2D9095892388BBFE013197F1F787B3A6
:10029000982397BB02EE14E0C8010197F1F78B2D6C
:1002A000DEDE7C0198B38D2D8095892388BBCE013D
:1002B0000197F1F788B3D82AD8BAC8010197F1F7A6
:1002C0008B2DCDDE24EFE21621E0F20690F4855866
:1002D000934078F080918A00853039F484E08093EF
:1002E0008A0081E08093870055C085E080938A0072
:1002F00051C087B3C39401E010E002C0000F111F8A
:10030000CA94E2F7802B87BB88B3802B88BB8CE430
:100310009DE10197F1F78B2DA2DEEC018A2D9FDE86
:10032000AC0188B30095802388BB87B3082307BB43
:1003300080918A008250823098F481E08093870017
:100340008FEF93E09C012C1B3D0B3093A200209378
:10035000A100841B950B9093A00080939F000FC079
:100360008FEF93E09C012C1B3D0B30939300209367
:100370009200841B950B90939E0080939D0048559E
:10038000524010F482E001C083E080938A0081E053
:1003900080938900A0928600B09296007092A3008C
:1003A00014BA15BA3AC127B33A2D330F82E090E060
:1003B00002C0880F991F3A95E2F7E82E282B27BB39
:1003C000E8E8CE2EE3E1DE2EC6010197F1F7872D96
:1003D00046DE8C0188B38E2988BBC6010197F1F7F0
:1003E000872D3DDE0C591F4F0817190790F515BAD8
:1003F000CE01072C02C0880F991F0A94E2F784BB34
:1004000097B38B2D880F02C0CC0FDD1F8A95E2F7C2
:100410008C2F9C2B97BB98B3892B88BBC601019767
:10042000F1F78A2D1CDE8152934020F083E0809307
:100430008A0004C083E080938A0085E0809389006D
:1004400081E080938700A0928600B092960070921F
:10045000A30015BA81E090E09C01062C02C0220F97
:10046000331F0A94E2F7922E24BB6201CC0CDD1CF0
:1004700027B30C2C02C0880F991F0A94E2F7282B8F
:1004800027BB28B3822B88BBC8E8D3E1CE010197F4
:10049000F1F78B2DE4DD8C0188B3E094E822E8BA13
:1004A000CE010197F1F78B2DDADD8C599F4F801724
:1004B0009107F0F485BA84BACE010197F1F78A2D3D
:1004C000CEDD883C910528F483E080938A0084E0A7
:1004D00004C083E080938A0086E08093890081E0F5
:1004E00080938700A092860070929600B092A3003D
:1004F00062E0E62EF12C0C2C02C0EE0CFF1C0A94DC
:10050000E2F701E010E002C0000F111FCA94E2F709
:1005100015BA94BA8A2D61E0B7DD8B2DA0DD6C0190
:10052000E7BAE8BA8B2D9BDD4C0107BB08BB8A2DCF
:1005300060E0AADD8B2D93DDEC01E7BAE8BA8B2DE4
:100540008EDDCC15DD0510F4E60101C04C01809173
:100550008A00882319F481E080938A002091880022
:10056000233008F05AC0E22FF0E0EE0FFF1FEE0F2D
:10057000FF1FEC55FF4FB08271828CE390E0AC011D
:10058000C49FC001C59F900DD49F900D11246DE0B4
:1005900070E0A5D573836283722F7F5F70938800AC
:1005A0009401220F331F10E034C0E12FF0E0EE0F72
:1005B000FF1FEE0FFF1FEC55FF4F8081871541F5A0
:1005C00081818B1529F52C173D0710F5612F472FD9
:1005D00050E04150504016C0EE0FFF1FEE0FFF1FBE
:1005E000DF01AC55BF4FE855FF4F80818C9381816F
:1005F00011968C9311978281938113969C938E937D
:1006000012976F5FE62FF0E0E417F5072CF37250B6
:100610001F5F171750F2709388009201220F331F4B
:1006200002E010E0022E02C0000F111F0A94E2F750
:1006300081E090E0AC0102C0440F551F2A95E2F71B
:1006400015BA02C0880F991F6A94E2F784BB47BBB2
:1006500048BB8B2D04DDEC0107BB08BB8B2DFFDCF9
:100660009C0188539F4F8C179D0700F5C901880F87
:10067000991F820F931F969587958C179D07B0F44D
:10068000CE32D10598F080918A00823018F486E04D
:1006900080938A00B092B00070928B00D093980043
:1006A000C0939700309395002093940014BA15BA24
:1006B00017BA18BADF91CF911F910F91FF90EF9069
:1006C000DF90CF90BF90AF909F908F907F906F9072
:1006D0005F904F9008951F93CF93DF938091960082
:1006E000E82FF0E0CF01880F991F61E070E0DB0197
:1006F00002C0AA0FBB1F8A95E2F710918600212F36
:1007000030E0A901440F551F82E090E002C0880F3D
:10071000991F4A95E2F7982F9A2B97BBAB0100904F
:10072000A30002C0440F551F0A94E2F7EB01012E0B
:1007300002C0CC0FDD1F0A94E2F79E01242B24BBDC
:1007400080918A00833009F066C0809189008130F1
:1007500001F515BA98BB82EE94E00197F1F702C05B
:10076000660F771FEA95E2F7262F44BB40E050E082
:1007700060E070E009C0A8954F5F5F4F6150704026
:1007800019F440E050E003C083B38223A1F7A8BB73
:1007900022C0823009F03FC025BB18BA82EE94E037
:1007A0000197F1F702C0660F771FEA95E2F7262F4F
:1007B00044BB45BB40E050E060E070E009C0A89554
:1007C0004F5F5F4F6150704019F440E050E003C04C
:1007D00083B38223A1F3A7BB41155105F1F0812F0B
:1007E0003EDC9C0180918900823031F48FEF93E0F0
:1007F000AC01421B530B9A0187E290E0289FA001B5
:10080000299F500D389F500D1124F3E056954795C0
:10081000FA95E1F702C040E050E0CA016CE870E0F0
:100820004AE050E019D417BA18BA14BA15BADF91D1
:10083000CF911F9108950F931F93CF93DF938E9ABB
:1008400082B3806C82BB83E886B990D304B603FE82
:100850000FC089EF90E0D0D380E395E729E130E045
:10086000F9013197F1F70197D9F712BA11BA3DC3DF
:1008700080E469D382E091E0BFD380E864D3CCE820
:10088000D0E004C090939300809392008FE028E121
:1008900030E00FB6F894A89521BD0FBE81BD10922F
:1008A0008A0010928800109287001092890057D316
:1008B00085E8D5DB85E8D3DB9093930080939200A5
:1008C0008A589240E8F48EE090E096D380919200AE
:1008D000909193008855924070F480E290E08CD320
:1008E00080E197E229E130E0F9013197F1F70197D2
:1008F000D9F712BAFAC288E190E07ED380EC23D314
:1009000080E090E079D380E061E042E0E4DB80E0E9
:1009100062E041E0E0DB81E060E042E0DCDB81E0DE
:1009200062E040E0D8DB82E061E040E0D4DB82E0DE
:1009300060E041E0D0DBCFDE12D380918A008130CD
:1009400009F09BC080918800813019F58DE590E019
:1009500053D380E690E044D38091A4008F5CF6D21C
:1009600083E690E03DD38091A5008F5CEFD280ECD0
:10097000EAD28FED90E040D38091A6009091A7003D
:100980006CE870E04AE050E048D32AD389EE90E06A
:100990006EC2823009F05DC29091A4003091A8002F
:1009A0009317C9F485E690E027D387E690E018D343
:1009B00080ECC9D280E690E013D38091A4008F5CD4
:1009C000C5D28AE690E00CD38091A5008F5CBED2A0
:1009D0008FE690E045C02091A5008091A9002817DE
:1009E000E1F485E690E008D384E790E0F9D280EC6A
:1009F000AAD287E790E0F4D28091A5008F5CA6D2BE
:100A000085EB90E0F9D28091A4008F5C9FD28AEBB5
:100A100090E0F2D28091A80051C1231751F48917B8
:100A200059F482E790E0E8D280EC8DD28BE790E039
:100A30001EC2891709F02EC282E790E0DDD280EC59
:100A400082D288E890E0D8D29091A8008091A50049
:100A5000891751F48091A4008F5C78D283E690E0EE
:100A6000BFD28091A9002AC1892F8F5C6FD283E603
:100A700090E0B6D28091A50021C1823009F0A5C0D6
:100A800080918700882381F4809192009091930057
:100A90009093A2008093A10080919D0090919E0070
:100AA0009093A00080939F0020919200309193003A
:100AB0008091A1009091A20082179307A0F4309337
:100AC000A2002093A10080919D0090919E009093A0
:100AD000A00080939F00909196008091A300809346
:100AE00096009093A30080918900813019F486ECE0
:100AF00090E002C08AEC90E07FD28EEC90E07CD255
:100B0000809186008F5C22D282ED90E075D2809138
:100B100096008F5C1BD286ED90E06ED28091A30090
:100B20008F5C14D280EC0FD26091A1007091A20072
:100B300080E090E023EB32E040E050E0B1D26093FF
:100B4000990070939A0080939B0090939C008091F1
:100B50009F009091A0000B9730F48BE090E0909371
:100B6000A00080939F0020919F003091A00040E062
:100B700050E06091990070919A0080919B00909153
:100B80009C00C1D22093990030939A0040939B001F
:100B900050939C00C9012093A1009093A2008FEB79
:100BA00090E02AD28091A1009091A2006CE870E0C0
:100BB0004AE050E051D214D280918800833009F08D
:100BC00069C18DECC0D180E064C1833009F043C0BD
:100BD0008091890080FF02C08EE401C080E5B6D11B
:100BE00090918900892F8350823018F48CE990E02D
:100BF00008C09550923018F48FE990E005C089E95B
:100C000090E0FAD184E990E0F7D180EC9CD18AEDB4
:100C100090E0F2D1809186008F5C98D1809196000F
:100C20008F5C94D18091A3008F5C90D180918800DB
:100C3000813011F480E001C080E288D18091890088
:100C4000833008F027C185EE90E0D6D18CE890E0A3
:100C5000C7D18DE61EC18530B9F485EA90E0CCD1CC
:100C600080EC71D18AE790E0BBD1809186008F5CE7
:100C70006DD18DE790E0B4D1809196008F5C66D104
:100C800083E690E0ADD118C08430D1F48FEA90E0D3
:100C9000B3D180EC58D18AE790E0A2D18091860050
:100CA0008F5C54D185EB90E0A7D1809196008F5C4A
:100CB0004DD18AEB90E0A0D18091A3008F5CE9C078
:100CC000863009F0C6C08CEE90E096D18091B000DD
:100CD0008F5C3CD18DE23AD180918B008F5C36D114
:100CE00080EC31D181E890E07BD120919700309168
:100CF000980082E02130380738F02050324030939D
:100D000093002093920008C080E092E0821B930B36
:100D100090939300809392002091940030919500DD
:100D200082E02130380738F0205032403093A20062
:100D30002093A10008C080E092E0821B930B909367
:100D4000A2008093A10020919200309193008091A5
:100D5000A1009091A2008217930758F4809194000B
:100D60009091950090939800809397008CE592E184
:100D700002C088EA92E0909395008093940080915D
:100D8000970090919800892B31F481E090E0909346
:100D90009800809397000091970010919800B801F7
:100DA00080E090E0209194003091950040E050E088
:100DB00077D12FEF33E0201B310B40E050E0C5D15D
:100DC0002093990030939A0040939B0050939C008D
:100DD000C90120939200909393006CE870E04AE080
:100DE00050E03AD180919400909195008C559241B9
:100DF00059F5FE0101900020E9F73197EC58F040D9
:100E0000E093B00010928B0016C0F0E0E457FF4F63
:100E100080819CD020918B0030E08091B00090E0E8
:100E200002972817390711F48EE290D080918B0039
:100E30008F5F80938B00E0918B008091B000E8176A
:100E400020F38BE683D003C08CE890E0C9D084EF18
:100E500020C080918800882361F486E290E0CCD0A5
:100E600080EC71D087E390E0C7D081E490E0C4D0FB
:100E700011C081E490E0C0D089E490E0BDD080EC66
:100E800062D081E590E0B8D080918800805D5ED02E
:100E900084E65CD0879BFECF80E593EC0197F1F769
:100EA000109293001092920080E090E04AEF50E0A0
:100EB0000AC09C012F5F3F4F879BE4CCA895CA01D5
:100EC0000197F1F7C90127E28031920790F39093DF
:100ED000930080939200969888E10FB6F89481BDB4
:100EE00011BC0FBE8799FECFD1CC80E090E0DF919E
:100EF000CF911F910F91089592B3907F92BB22B32F
:100F0000982F92959F70922B92BB21E0922F9A95E9
:100F1000F1F7959A922F9A95F1F7959892B3907F61
:100F200092BB92B38F70982B92BB822F8A95F1F768
:100F3000959A2A95F1F7959884E18A95F1F782B30D
:100F4000807F82BB08959498D7DF0895949AD4DF68
:100F50000895959A81E08A95F1F79598089581E032
:100F6000F2DF82EE94E00197F1F708950F931F935B
:100F700081B38F6381BB86EA9EE00197F1F782B36C
:100F8000807F82BB82B3836082BB9498959A81E014
:100F9000982F9A95F1F79598E2EEF4E03197F1F7F2
:100FA000959A982F9A95F1F795980AEF10E0F80125
:100FB0003197F1F7959A8A95F1F79598C8010197BD
:100FC000F1F782E0C0DFC8010197F1F788E2BBDFEB
:100FD0008CE0B9DF86E0B7DFC2DF1F910F91089583
:100FE000CF93DF93EC0102C0B1DF21968881882383
:100FF000D9F7DF91CF910895CF93DF93EC01E19979
:10100000FECFDFBBCEBBE09A8DB3882319F09EDF05
:101010002196F5CFDF91CF910895FB019F01E894D0
:101020004230BCF04532ACF44A3029F497FB1EF450
:10103000909581959F4F642F772751D0805D8A339B
:101040000CF0895D8193CB010097A9F716F45DE25E
:1010500051931082C90114C0FB019F0142306CF012
:1010600045325CF4642F77273AD0805D8A330CF0E8
:10107000895D8193CB010097A9F71082C90100C057
:10108000DC01FC01672F71917723E1F7329704C0EF
:101090007C916D9370836291AE17BF07C8F308957A
:1010A000629FD001739FF001829FE00DF11D649F4C
:1010B000E00DF11D929FF00D839FF00D749FF00DD8
:1010C000659FF00D9927729FB00DE11DF91F639F79
:1010D000B00DE11DF91FBD01CF0111240895AA1B18
:1010E000BB1B51E107C0AA1FBB1FA617B70710F013
:1010F000A61BB70B881F991F5A95A9F78095909545
:10110000BC01CD010895A1E21A2EAA1BBB1BFD0153
:101110000DC0AA1FBB1FEE1FFF1FA217B307E407D6
:10112000F50720F0A21BB30BE40BF50B661F771F2E
:10113000881F991F1A9469F760957095809590950E
:101140009B01AC01BD01CF01089597FB092E052637
:101150000ED057FD04D0D7DF0AD0001C38F45095CC
:101160004095309521953F4F4F4F5F4F0895F6F7CB
:1011700090958095709561957F4F8F4F9F4F089503
:04118000F894FFCF11
:10118400413D003B4B3D004341003B4B313D003B67
:101194004B323D004343004B3D00473D003B413D46
:0611A4000052203D200076
:00000001FF
